:020000040800F2
:1000000008040020FD010008DD030008D5030008F6
:10001000D9030008E7020008890600080000000074
:100020000000000000000000000000005B04000869
:10003000EB02000800000000590400087D050008DC
:10004000170200081702000817020008170200082C
:10005000170200081702000817020008170200081C
:10006000170200081702000817020008170200080C
:1000700017020008170200081702000817020008FC
:1000800017020008170200081702000817020008EC
:1000900017020008170200081702000817020008DC
:1000A00017020008170200081702000817020008CC
:1000B00017020008170200081702000817020008BC
:1000C00017020008170200081702000817020008AC
:1000D000170200081702000817020008170200089C
:1000E000170200081702000817020008170200088C
:1000F000170200081702000817020008170200087C
:10010000170200081702000817020008170200086B
:10011000170200081702000817020008170200085B
:10012000170200081702000817020008170200084B
:10013000170200081702000817020008170200083B
:10014000170200081702000817020008170200082B
:10015000170200081702000817020008170200081B
:10016000170200081702000817020008170200080B
:1001700017020008170200081702000817020008FB
:1001800017020008170200081702000817020008EB
:1001900017020008170200081702000817020008DB
:1001A00017020008170200081702000817020008CB
:1001B00017020008170200081702000817020008BB
:1001C00017020008170200081702000817020008AB
:1001D000170200081702000817020008170200089B
:1001E0001702000829030008DFF80CD000F04AF8D5
:1001F00000480047590A00080804002006488047C4
:1002000006480047FEE7FEE7FEE7FEE7FEE7FEE7FB
:10021000FEE7FEE7FEE7FEE781050008E9010008CA
:100220002DE9F05F0546002092469B46884606462B
:10023000814640241BE0284641464746224600F0BE
:1002400042F853465A46C01A914110D311461846F7
:10025000224600F029F82D1A67EB01084F46224686
:100260000120002100F020F817EB00094E41201E6C
:10027000A4F10104DFDC484631462A464346BDE886
:10028000F09F0000064C074D06E0E06840F00103D7
:1002900094E8070098471034AC42F6D3FFF7A8FF64
:1002A000940A0008B40A0008202A04DB203A00FA65
:1002B00002F1002070479140C2F1200320FA03F3BD
:1002C000194390407047202A04DB203A21FA02F0BB
:1002D0000021704721FA02F3D040C2F12002914080
:1002E00008431946704700BFFEE77047012806D152
:1002F0000649096841F00101044A116005E003491B
:10030000096821F00101014A116070470010065090
:1003100001460020034A52680A400AB1012000E069
:10032000002070470010065010B50A48006900F020
:10033000010070B10748C06840F001000549C8607D
:1003400005A000F0A3F90348026AC16908A000F003
:100350009DF910BD0010065064697620696E7465C1
:100360007272757074206973206F70656E0D0A006B
:1003700051554F203D20307825782C52454D41492C
:100380004E203D20307825780D0A000000210278AB
:1003900002F0010241EA42210278C2F3400241EA3E
:1003A00042010B4A12680A43094B1A60C2685A623A
:1003B0000278C2F3400222B142685A6182689A61AF
:1003C00004E0034B42685A6182689A6170470000FA
:1003D0000010065000BFFEE700BFFEE770470000B8
:1003E00070B5002100230F22C4781CB3174C246879
:1003F00004F4E064C4F5E064C4F30721C1F104042B
:10040000E3B20A4144789C40E1B28478144021432D
:100410000C07210E0E4C05786155047804F01F0579
:100420000124AC4005786D11AD0005F1E025C5F85B
:10043000004109E0047804F01F050124AC40054D9B
:100440000678761145F8264070BD00000CED00E0FE
:1004500000E400E080E100E0704770470CB5002048
:10046000019000904148006840F480303F490860A6
:1004700000BF3E48006800F4003000900198401C26
:100480000190009818B90198B0F5A04FF1D1374804
:10049000006800F4003010B10120009001E000205D
:1004A00000900098012860D130484030006840F04A
:1004B00080502E49403108602D48006840F440408B
:1004C0002B4908602948083000682849083108602D
:1004D0000846006840F4004008600846006840F4A0
:1004E000A05008602348091F0860081F006840F0FA
:1004F0008070091F086000BF1C48006800F0007091
:100500000028F9D01A48006840F480301849086083
:1005100000BF1748406800F480300028F9D0144824
:10052000006840F400301249086000BF104840687D
:1005300000F400300028F9D040F205700E49086040
:100540000A480830006820F00300084908310860B4
:100550000846006840F00200086000BF0348083009
:10056000006800F00C000828F8D10CBD00380240EB
:1005700000700040195A4007003C024070470000DC
:1005800010B51548006840F470001349086013481E
:10059000006840F001001149086000200F4908314F
:1005A00008600E4800680E4908400C4908600D4874
:1005B000091D0860081F006820F48020091F0860DA
:1005C000002006490C310860FFF748FF4FF000603B
:1005D00001498039086010BD88ED00E00038024014
:1005E000FFFFF6FE1030002400BF0549097801F036
:1005F00080010029F9D0C0F30801014A5160704719
:10060000001001401D48006840F001001B490860CF
:100610001A481430006840F010001849143108607E
:100620001748406A40F07000154948620846006863
:1006300040F4002008600846406820F4002048602C
:100640000846806840F4002088600846C06840F48E
:100650008020C8600B48806840F20D31084309498A
:1006600088600846C06842F20C0108430549C8602A
:100670000846C06940F00100C86170473038024048
:10068000000002400010014000BFFEE70FB4054B20
:1006900010B503A9044A029800F018F810BC5DF8E0
:1006A00014FB00008D0900080000002002E008C8CB
:1006B000121F08C1002AFAD170477047002001E0DC
:1006C00001C1121F002AFBD1704700002DE9FF4F26
:1006D0008DB09B460F460446002606E025280BD029
:1006E0005A460F999047641C761C20780028F5D153
:1006F00011B03046BDE8F08F0025A8460122984988
:1007000000E0054314F8013F203B02FA03F00842E1
:10071000F7D120782E2817D114F8010F45F00405E1
:100720002A280ED06FF02F022078A0F1300109297D
:100730000AD808EB880102EB410100EB0108641CB8
:10074000F2E757F8048B641C20786C280DD004DC89
:100750004C2812D06A2811D104E074280DD07A28D0
:100760000CD10AE045F4001507E0617845F48015E6
:10077000814202D1641C05F58015641C2278692A27
:1007800045D008DC002AB3D0582A69D0632A10D09B
:10079000642A08D13BE0702A67D0732A13D0752AE7
:1007A0005CD0782A5CD010465A460F999047761C48
:1007B000D3E017F8040B8DF8000000208DF801003D
:1007C000E946012003E057F8049B4FF0FF3069072A
:1007D0004FF0000501D40AE06D1C45450DDA854255
:1007E000FADB19F805100029F6D106E06D1C8542E8
:1007F000FCDB19F805100029F8D12E4404E019F8A3
:10080000010B5A460F9990476D1EF8D2A5E00A20B9
:100810000021CDE90801C5F3025002280DD001CF17
:10082000C117031E71F100030DDA4FF0000CD0EB7D
:100830000C006CEB01012D2308E0FF1D27F00707DA
:10084000F7E80201EDE72B0504D52B238DF82830BE
:1008500001233BE0EB0739D02023F7E70A2000E033
:1008600010200021CDE9080107E01020002145F00B
:100870000405CDE908014FF00808C5F3025002282D
:100880000FD001CF00214FF0000A2B071FD5702A8F
:100890000DD0DDE908C38CF0100C5CEA030C0CD021
:1008A00015E0FF1D27F00707F7E80201EBE74022FC
:1008B0008DF828204FF0010A0BE050EA010306D022
:1008C00030238DF828308DF8292002239A46582AA3
:1008D00004D024A20DF120090B9209E026A2F9E729
:1008E000DDE90823FFF79CFC0B9B9B5C09F8013DAD
:1008F00050EA0102F4D1ADEB0900203008906807FE
:1009000001D44FF001080899884502DDA8EB0100E9
:1009100000E000208046002506E00AA85A46405D17
:100920000F9990476D1C761C5545F6DB04E030208E
:100930005A460F999047761CB8F10001A8F10108BA
:10094000F5DC05E019F8010B5A460F999047761C23
:100950000899481E08900029F4DC641CC5E60000D4
:100960000928010030313233343536373839616285
:100970006364656600000000303132333435363749
:1009800038394142434445460000000010B5034653
:100990000C46D8B2FFF728FE10BD000008B5194874
:1009A000006840F480301749086017A0FFF76EFE1A
:1009B00069208DF8000001208DF803006846FFF7DC
:1009C0000FFD207820F002002070154860607B2029
:1009D000A0602046FFF7DAFC012012498860FFF78B
:1009E00085FC11A0FFF752FE00BF0120FFF790FC2D
:1009F0000028FAD00B48026AC1690EA0FFF746FE34
:100A000008BD000094380240656E61626C65206626
:100A1000696E7464697620636C6F636B0D0A000005
:100A2000C7CFFFFF001006506469762073746172AF
:100A3000740D0A0064697620656E642C51554F2050
:100A40003D20307825782C52454D41494E203D209F
:100A5000307825780D0A0000FFF7D4FD03A0FFF7DA
:100A600015FEFFF79BFF00BFFEE700000D0A666959
:100A70006E746469762066756E6374696F6E5F6408
:100A800069765F7369676E5F697420746573740D4E
:100A90000A000000B40A0008000000200400000062
:100AA000AC060008B80A0008040000200404000096
:080AB000BC0600080000000074
:04000005080001E905
:00000001FF
