:020000040800F2
:1000000008040020FD010008E5020008DD020008E8
:10001000E1020008710200089105000800000000DC
:100020000000000000000000000000006303000862
:100030007502000800000000610300088504000844
:10004000170200081702000817020008170200082C
:10005000170200081702000817020008170200081C
:10006000170200081702000817020008170200080C
:1000700017020008170200081702000817020008FC
:1000800017020008170200081702000817020008EC
:1000900017020008170200081702000817020008DC
:1000A00017020008170200081702000817020008CC
:1000B00017020008170200081702000817020008BC
:1000C00017020008170200081702000817020008AC
:1000D000170200081702000817020008170200089C
:1000E000170200081702000817020008170200088C
:1000F000170200081702000817020008170200087C
:10010000170200081702000817020008170200086B
:10011000170200081702000817020008170200085B
:10012000170200081702000817020008170200084B
:10013000170200081702000817020008170200083B
:10014000170200081702000817020008170200082B
:10015000170200081702000817020008170200081B
:10016000170200081702000817020008170200080B
:1001700017020008170200081702000817020008FB
:1001800017020008170200081702000817020008EB
:1001900017020008170200081702000817020008DB
:1001A00017020008170200081702000817020008CB
:1001B00017020008170200081702000817020008BB
:1001C00017020008170200081702000817020008AB
:1001D000170200081702000817020008170200089B
:1001E0001702000879020008DFF80CD000F02EF8A2
:1001F00000480047B107000808040020064880476F
:1002000006480047FEE7FEE7FEE7FEE7FEE7FEE7FB
:10021000FEE7FEE7FEE7FEE789040008E9010008C3
:1002200030B50B46014600202022012409E021FAC6
:1002300002F59D4205D303FA02F5491B04FA02F5C3
:100240002844151EA2F10102F1DC30BD064C074D19
:1002500006E0E06840F0010394E807009847103496
:10026000AC42F6D3FFF7C4FFDC070008FC07000828
:1002700000BFFEE77047000010B50B48006800F0B3
:10028000010080B10848006820F0010006490860BC
:1002900006A000F07FF9044810300268001F0168D2
:1002A00008A000F077F910BD10380040646976208E
:1002B000696E74657272757074206973206F7065F1
:1002C0006E0D0A0051554F203D2025642C52454D9E
:1002D00041494E203D2025640D0A000000BFFEE785
:1002E00000BFFEE77047000070B5002100230F2219
:1002F000C4781CB3174C246804F4E064C4F5E064CB
:10030000C4F30721C1F10404E3B20A4144789C40DC
:10031000E1B28478144021430C07210E0E4C05787D
:100320006155047804F01F050124AC4005786D1177
:10033000AD0005F1E025C5F8004109E0047804F0BE
:100340001F050124AC40054D0678761145F826407E
:1003500070BD00000CED00E000E400E080E100E092
:10036000704770470CB5002001900090414800682C
:1003700040F480303F49086000BF3E48006800F408
:10038000003000900198401C0190009818B9019825
:10039000B0F5A04FF1D13748006800F4003010B13B
:1003A0000120009001E0002000900098012860D119
:1003B00030484030006840F080502E49403108609D
:1003C0002D48006840F440402B4908602948083017
:1003D00000682849083108600846006840F4004079
:1003E00008600846006840F4A05008602348091FD0
:1003F0000860081F006840F08070091F086000BF97
:100400001C48006800F000700028F9D01A48006805
:1004100040F480301849086000BF1748406800F475
:1004200080300028F9D01448006840F400301249A8
:10043000086000BF1048406800F400300028F9D080
:1004400040F205700E4908600A480830006820F044
:1004500003000849083108600846006840F00200BF
:10046000086000BF03480830006800F00C0008284E
:10047000F8D10CBD0038024000700040195A400706
:10048000003C02407047000010B51548006840F479
:100490007000134908601348006840F001001149DA
:1004A000086000200F49083108600E4800680E49B6
:1004B00008400C4908600D48091D0860081F0068C5
:1004C00020F48020091F0860002006490C310860D4
:1004D000FFF748FF4FF0006001498039086010BD08
:1004E00088ED00E000380240FFFFF6FE10300024E7
:1004F00000BF0549097801F080010029F9D0C0F357
:100500000801014A51607047001001401D48006811
:1005100040F001001B4908601A481430006840F0A0
:1005200010001849143108601748406A40F0700004
:10053000154948620846006840F4002008600846F3
:10054000406820F4002048600846806840F400209D
:1005500088600846C06840F48020C8600B48806806
:1005600040F20D310843094988600846C06842F2EC
:100570000C0108430549C8600846C06940F0010005
:10058000C86170473038024000000240001001404E
:1005900000BFFEE70FB4054B10B503A9044A02984B
:1005A00000F018F810BC5DF814FB0000A10700086B
:1005B0000000002002E008C8121F08C1002AFAD17A
:1005C00070477047002001E001C1121F002AFBD1D3
:1005D000704700002DE9FF4F89B09B460446002577
:1005E00006E025280BD05A460B999047641C6D1CD9
:1005F00020780028F5D10DB02846BDE8F08F0027FF
:10060000B8460122474900E0074314F8013F203B68
:1006100002FA03F00842F7D120782E2819D114F8F5
:10062000010F47F004072A280ED06FF02F02207820
:10063000A0F1300109290CD808EB880102EB410137
:1006400000EB0108641CF2E70A98641C50F8048B64
:100650000A9020780028CED0642808D0692806D0D7
:1006600075281ED05A460B9990476D1C58E00A9980
:100670004FF00A0901C90A91002802DA40422D21EF
:1006800002E0390504D52B218DF82010012103E06B
:10069000F90704D02021F7E78A4608AE0DE00021D3
:1006A000FAE70A994FF00A0901C90A91F7E74946A2
:1006B000FFF7B6FD303106F8011D0028F7D1ADEB8C
:1006C000060000F12009780701D44FF00108C84561
:1006D00002DDA8EB090000E000208046002706E0CC
:1006E00008A85A46C05D0B9990476D1C7F1C574562
:1006F000F6DB04E030205A460B9990476D1CB8F1A8
:100700000001A8F10108F5DC05E016F8010B5A46D6
:100710000B9990476D1CB9F10001A9F10109F4DCB6
:10072000641C65E70928010008B51548006840F415
:1007300080301349086013A0FFF72CFF69208DF863
:10074000000001208DF803006846FFF7CDFD4FF44F
:100750008060124908608010091D08600F480C383D
:10076000006840F001000D490C3908600B4814384E
:10077000006840F0030009491439086008BD000012
:1007800056B76202656E61626C652066696E74645C
:10079000697620636C6F636B0D0A000014380040AB
:1007A00010B503460C46D8B2FFF7A2FE10BD0000FC
:1007B000FFF7ACFE03A0FFF7EDFEFFF7B5FF00BFAC
:1007C000FEE700000D0A66696E7464697620726542
:1007D0006720746573740D0A00000000FC070008B0
:1007E0000000002004000000B40500080008000814
:1007F0000400002004040000C405000800000000FC
:04000005080001E905
:00000001FF
