:020000040800F2
:1000000008040020C1010008B9020008B10200087C
:10001000B5020008AB020008ED0400080000000073
:10002000000000000000000000000000BD02000809
:10003000AF02000800000000BB020008E103000856
:10004000DB010008DB010008DB010008DB01000820
:10005000DB010008DB010008DB010008DB01000810
:10006000DB010008DB010008DB010008DB01000800
:10007000DB010008DB010008DB010008DB010008F0
:10008000DB010008DB010008DB010008DB010008E0
:10009000DB010008DB010008DB010008DB010008D0
:1000A000DB010008DB010008DB010008DB010008C0
:1000B000DB010008DB010008DB010008DB010008B0
:1000C000DB010008DB010008DB010008DB010008A0
:1000D000DB010008DB010008DB010008DB01000890
:1000E000DB010008DB010008DB010008DB01000880
:1000F000DB010008DB010008DB010008DB01000870
:10010000DB010008DB010008DB010008DB0100085F
:10011000DB010008DB010008DB010008DB0100084F
:10012000DB010008DB010008DB010008DB0100083F
:10013000DB010008DB010008DB010008DB0100082F
:10014000DB010008DB010008DB010008DB0100081F
:10015000DB010008DB010008DB010008DB0100080F
:10016000DB010008DB010008DB010008DB010008FF
:10017000DB010008DB010008DB010008DB010008EF
:10018000DB010008DB010008DB010008DB010008DF
:10019000DB010008DB010008DB010008DB010008CF
:1001A000DB010008DB010008DB010008DFF80CD0F0
:1001B00000F04AF800480047490A000808040020F7
:1001C0000648804706480047FEE7FEE7FEE7FEE7F1
:1001D000FEE7FEE7FEE7FEE7FEE7FEE7E5030008D1
:1001E000AD0100082DE9F05F0546002092469B46D0
:1001F00088460646814640241BE02846414647463D
:10020000224600F042F853465A46C01A914110D394
:1002100011461846224600F029F82D1A67EB01080E
:100220004F4622460120002100F020F817EB00097C
:100230004E41201EA4F10104DFDC484631462A4627
:100240004346BDE8F09F0000064C074D06E0E0681D
:1002500040F0010394E8070098471034AC42F6D30D
:10026000FFF7A8FFEC0A00080C0B0008202A04DBAB
:10027000203A00FA02F1002070479140C2F12003B9
:1002800020FA03F3194390407047202A04DB203AF8
:1002900021FA02F00021704721FA02F3D040C2F1A6
:1002A0002002914008431946704700BFFEE770479F
:1002B00000BFFEE700BFFEE77047704770470000D1
:1002C0000CB50020019000904148006840F4803057
:1002D0003F49086000BF3E48006800F400300090CD
:1002E0000198401C0190009818B90198B0F5A04FF2
:1002F000F1D13748006800F4003010B101200090BF
:1003000001E0002000900098012860D13048403082
:10031000006840F080502E49403108602D48006848
:1003200040F440402B4908602948083000682849BB
:10033000083108600846006840F40040086008463C
:10034000006840F4A05008602348091F0860081F97
:10035000006840F08070091F086000BF1C480068FA
:1003600000F000700028F9D01A48006840F480308E
:100370001849086000BF1748406800F48030002822
:10038000F9D01448006840F400301249086000BFFA
:100390001048406800F400300028F9D040F20570A1
:1003A0000E4908600A480830006820F00300084938
:1003B000083108600846006840F00200086000BF8D
:1003C00003480830006800F00C000828F8D10CBD84
:1003D0000038024000700040195A4007003C0240BB
:1003E0007047000010B51548006840F470001349CC
:1003F00008601348006840F00100114908600020BF
:100400000F49083108600E4800680E4908400C4941
:1004100008600D48091D0860081F006820F480204E
:10042000091F0860002006490C310860FFF748FFEB
:100430004FF0006001498039086010BD88ED00E090
:1004400000380240FFFFF6FE1030002400BF0549CF
:10045000097801F080010029F9D0C0F30801014AB0
:1004600051607047001001401D48006840F00100D5
:100470001B4908601A481430006840F01000184901
:10048000143108601748406A40F07000154948620E
:100490000846006840F4002008600846406820F4E0
:1004A000002048600846806840F4002088600846C4
:1004B000C06840F48020C8600B48806840F20D316D
:1004C0000843094988600846C06842F20C010843A5
:1004D0000549C8600846C06940F00100C86170471E
:1004E00030380240000002400010014000BFFEE72B
:1004F0000FB4054B10B503A9044A029800F018F890
:1005000010BC5DF814FB0000390A00080000002050
:1005100002E008C8121F08C1002AFAD170477047CC
:10052000002001E001C1121F002AFBD1704700002A
:100530002DE9FF4F8DB00F460546002606E0252821
:100540000BD0DDE90F1290476D1C761C287800282F
:10055000F5D111B03046BDE8F08F0024A246A14687
:100560000122EC4900E0044315F8013F203B02FA68
:1005700003F00842F7D128782A2810D06FF02F0214
:100580002878A0F13001092914D80AEB8A0102EB7E
:10059000410144F0020400EB010A6D1CF0E701CFB9
:1005A0005FEA000A03D544F40054CAF1000A44F09B
:1005B00002046D1C28782E2817D115F8010F44F07D
:1005C00004042A280ED06FF02F022878A0F1300101
:1005D00009290AD809EB890102EB410100EB010965
:1005E0006D1CF2E757F8049B6D1C28786C280FD01F
:1005F00006DC4C2817D068280DD06A2814D104E0F6
:10060000742810D07A280FD10DE044F400140AE0C9
:1006100044F4801401E044F440146978814202D12A
:1006200004F580146D1C6D1C2A786E2A1FD00CDC1A
:10063000632A31D004DC002A8BD0582A11D1A3E0E0
:10064000642A68D0692A0CD165E0732A2ED004DCB4
:100650006F2A73D0702A04D19BE0752A6FD0782A54
:100660006ED01046DDE90F129047761C50E1C4F3BE
:100670000250022806D0032809D0042801CF09D04F
:10068000066045E101CFF117C0E9006140E101CF0B
:1006900006803DE106703BE117F8040B8DF8000081
:1006A00000208DF80100EB46012003E057F804BB61
:1006B0004FF0FF3061074FF0000102D40DE008F168
:1006C0000101884649450FDA8045F8DB1BF8081020
:1006D0000029F4D108E008F1010188468142FADBE3
:1006E0001BF808100029F6D1DDE90F23AAEB08005A
:1006F0008146214600F036F9304400EB080604E05C
:10070000DDE90F121BF8010B9047B8F10108F7D291
:1007100021464846F7E00A21C4F302534FF0000B8C
:100720000891022B04D001CFC117032B09D00AE096
:10073000FF1D27F00707F7E8020108E032E01FE09D
:1007400020E000B2C117042B01D140B2C117031E33
:1007500071F1000307DA4FF0000CD0EB0C006CEBEA
:1007600001012D2302E0230504D52B238DF824302D
:10077000012303E0E30701D02023F7E7984658E080
:100780000A2110E010210EE010204FF0000B08901D
:100790000CE010214FF0000B44F004044FF0080966
:1007A000089103E008214FF0000B0891C4F30253B5
:1007B000022B04D001CF0021032B06D006E0FF1D41
:1007C00027F00707F7E8020103E080B2042B00D10D
:1007D000C0B24FF0000823072BD5702A07D0DDF8F0
:1007E00020C08CF0100C5CEA0B0C05D00EE040230E
:1007F0008DF82430012308E050EA010306D03023AD
:100800008DF824308DF8252002239846DDF820C08D
:100810008CF0080C5CEA0B0C0BD150EA010301D1FF
:10082000630706D530238DF824304FF00108A9F175
:100830000109582A04D038A20B9208AA0A920BE0A8
:100840003AA2F9E75B46089AFFF7CCFC0B9B9B5C4E
:100850000A9A521E0A92137050EA0102F2D10A98C3
:10086000ADEB000000F1200B600702D524F48034CA
:1008700001E04FF00109D94502DDA9EB0B0000E0D2
:10088000002000EB0B0141440890AAEB010AE003B1
:1008900006D4DDE90F232146504600F063F80644F4
:1008A0004FF0000908E009A911F80900DDE90F126D
:1008B000904709F10109761CC145F4DBE0030CD532
:1008C000DDE90F232146504600F04CF8064404E0D1
:1008D000DDE90F1230209047761C0899481E0890D9
:1008E0000029F5DC08E00A980A990078491C0A9169
:1008F000DDE90F129047761CBBF10001ABF1010B53
:10090000F1DC21465046DDE90F2300F019F80644DA
:100910006D1C1BE60928010030313233343536377F
:10092000383961626364656600000000303132333B
:1009300034353637383941424344454600000000DB
:100940002DE9F041044600251E461746880404D4CC
:1009500005E039462020B0476D1C641EF9D52846B5
:10096000BDE8F0812DE9F041044600251E46904681
:10097000C80301D5302700E02027880404D505E00E
:1009800041463846B0476D1C641EF9D52846BDE87F
:10099000F081000010B51648006840F4803014491A
:1009A000086014A0FFF7A4FD17A0FFF7A1FD4FF00A
:1009B000FF3000F08BF800F07DF816A0FFF798FDEF
:1009C000002000F083F800F075F815A0FFF790FD07
:1009D0004FF05A3000F07AF800F06CF813A0FFF7EF
:1009E00087FD4FF0A53000F071F800F063F810BDFE
:1009F00056B76202656E61626C652066696E7464EA
:100A000069760D0A000000007772697465206666D9
:100A10000D0A000077726974652030300D0A0000FD
:100A200077726974652035610D0A00007772697408
:100A3000652061350D0A000010B503460C46D8B29A
:100A4000FFF704FD10BD0000FFF70EFD03A0FFF748
:100A50004FFDFFF79FFF00BFFEE700000D0A66692C
:100A60006E746469762072656720746573740D0A0C
:100A70000000000070B5064C002506E0214605A0E8
:100A80002268FFF735FD241D6D1C0B2DF6DB70BDB4
:100A90000038004061646472203078253038782056
:100AA00064617461203D2030783078253038780DCD
:100AB0000A0000000449002003E000220A60091D2A
:100AC000401C0B28F9DB70470038004070B5044625
:100AD000054D002002E02C602D1D401C0B28FADB88
:100AE000FFF7C8FF70BD0000003800400C0B000885
:100AF000000000200400000010050008100B000892
:100B0000040000200404000020050008000000008C
:04000005080001AD41
:00000001FF
