:020000040800F2
:1000000008040020FD010008990200089102000880
:100010009502000871020008CD04000800000000ED
:100020000000000000000000000000009D02000829
:1000300075020008000000009B020008C1030008D0
:10004000170200081702000817020008170200082C
:10005000170200081702000817020008170200081C
:10006000170200081702000817020008170200080C
:1000700017020008170200081702000817020008FC
:1000800017020008170200081702000817020008EC
:1000900017020008170200081702000817020008DC
:1000A00017020008170200081702000817020008CC
:1000B00017020008170200081702000817020008BC
:1000C00017020008170200081702000817020008AC
:1000D000170200081702000817020008170200089C
:1000E000170200081702000817020008170200088C
:1000F000170200081702000817020008170200087C
:10010000170200081702000817020008170200086B
:10011000170200081702000817020008170200085B
:10012000170200081702000817020008170200084B
:10013000170200081702000817020008170200083B
:10014000170200081702000817020008170200082B
:10015000170200081702000817020008170200081B
:10016000170200081702000817020008170200080B
:1001700017020008170200081702000817020008FB
:1001800017020008170200081702000817020008EB
:1001900017020008170200081702000817020008DB
:1001A00017020008170200081702000817020008CB
:1001B00017020008170200081702000817020008BB
:1001C00017020008170200081702000817020008AB
:1001D000170200081702000817020008170200089B
:1001E0001702000817020008DFF80CD000F02EF804
:1001F00000480047690700080804002006488047B7
:1002000006480047FEE7FEE7FEE7FEE7FEE7FEE7FB
:10021000FEE7FEE7FEE7FEE7C5030008E901000888
:1002200030B50B46014600202022012409E021FAC6
:1002300002F59D4205D303FA02F5491B04FA02F5C3
:100240002844151EA2F10102F1DC30BD064C074D19
:1002500006E0E06840F0010394E807009847103496
:10026000AC42F6D3FFF7C4FFA4070008C407000898
:1002700000BFFEE77047000001460020034A5268B5
:100280000A400AB1012000E000207047001006502B
:1002900000BFFEE700BFFEE77047704770470000F1
:1002A0000CB50020019000904148006840F4803077
:1002B0003F49086000BF3E48006800F400300090ED
:1002C0000198401C0190009818B90198B0F5A04F12
:1002D000F1D13748006800F4003010B101200090DF
:1002E00001E0002000900098012860D130484030A3
:1002F000006840F080502E49403108602D48006869
:1003000040F440402B4908602948083000682849DB
:10031000083108600846006840F40040086008465C
:10032000006840F4A05008602348091F0860081FB7
:10033000006840F08070091F086000BF1C4800681A
:1003400000F000700028F9D01A48006840F48030AE
:100350001849086000BF1748406800F48030002842
:10036000F9D01448006840F400301249086000BF1A
:100370001048406800F400300028F9D040F20570C1
:100380000E4908600A480830006820F00300084958
:10039000083108600846006840F00200086000BFAD
:1003A00003480830006800F00C000828F8D10CBDA4
:1003B0000038024000700040195A4007003C0240DB
:1003C0007047000010B51548006840F470001349EC
:1003D00008601348006840F00100114908600020DF
:1003E0000F49083108600E4800680E4908400C4962
:1003F00008600D48091D0860081F006820F480206F
:10040000091F0860002006490C310860FFF748FF0B
:100410004FF0006001498039086010BD88ED00E0B0
:1004200000380240FFFFF6FE1030002400BF0549EF
:10043000097801F080010029F9D0C0F30801014AD0
:1004400051607047001001401D48006840F00100F5
:100450001B4908601A481430006840F01000184921
:10046000143108601748406A40F07000154948622E
:100470000846006840F4002008600846406820F400
:10048000002048600846806840F4002088600846E4
:10049000C06840F48020C8600B48806840F20D318D
:1004A0000843094988600846C06842F20C010843C5
:1004B0000549C8600846C06940F00100C86170473E
:1004C00030380240000002400010014000BFFEE74B
:1004D0000FB4054B10B503A9044A029800F018F8B0
:1004E00010BC5DF814FB0000650600080000002049
:1004F00002E008C8121F08C1002AFAD170477047ED
:10050000002001E001C1121F002AFBD1704700004A
:100510002DE9FF4F89B09B460446002506E02528BB
:100520000BD05A460B999047641C6D1C207800280C
:10053000F5D10DB02846BDE8F08F0027B84601225E
:10054000474900E0074314F8013F203B02FA03F05B
:100550000842F7D120782E2819D114F8010F47F05E
:1005600004072A280ED06FF02F022078A0F1300166
:1005700009290CD808EB880102EB410100EB0108C6
:10058000641CF2E70A98641C50F8048B0A902078E7
:100590000028CED0642808D0692806D075281ED03F
:1005A0005A460B9990476D1C58E00A994FF00A097A
:1005B00001C90A91002802DA40422D2102E03905E2
:1005C00004D52B218DF82010012103E0F90704D078
:1005D0002021F7E78A4608AE0DE00021FAE70A99E4
:1005E0004FF00A0901C90A91F7E74946FFF718FEDB
:1005F000303106F8011D0028F7D1ADEB060000F1FF
:100600002009780701D44FF00108C84502DDA8EBA6
:10061000090000E000208046002706E008A85A46AE
:10062000C05D0B9990476D1C7F1C5745F6DB04E0BD
:1006300030205A460B9990476D1CB8F10001A8F183
:100640000108F5DC05E016F8010B5A460B999047B6
:100650006D1CB9F10001A9F10109F4DC641C65E726
:100660000928010010B503460C46D8B2FFF7DEFE9C
:1006700010BD000070B52048006840F480301E496D
:1006800008601EA0FFF724FF42F24810214948618C
:100690006FF09A008861204848620846006840F47C
:1006A000007008600846006840F2011108431949CB
:1006B000086000BF4FF40070FFF7DEFD20B9012095
:1006C000FFF7DAFD0028F5D01248846AE5B24FF64C
:1006D000FF7000EA244611A0FFF7FAFE33462A46CF
:1006E000214615A0FFF7F4FE0A48026AC16918A066
:1006F000FFF7EEFE70BD000094380240656E616247
:100700006C652066696E7464697620636C6F636BD8
:100710000D0A000000100650E7700200726F6F743F
:1007200020696E74657272757074206973206F70C1
:10073000656E0D0A0000000061203D2025642C62DA
:10074000203D2025642C63203D2025640D0A0000F7
:1007500051554F203D2025642C52454D41494E2096
:100760003D2025640D0A0000FFF76EFE03A0FFF791
:10077000AFFEFFF77FFF00BFFEE700000D0A6669CE
:100780006E746469762066756E6374696F6E5F64FB
:1007900069765F7369676E5F697420746573740D41
:1007A0000A000000C4070008000000200400000048
:1007B000F0040008C807000804000020040400003A
:0807C000000500080000000024
:04000005080001E905
:00000001FF
