:020000040800F2
:1000000008040020FD0100080D0300080503000896
:1000100009030008E702000841050008000000008D
:1000200000000000000000000000000011030008B4
:10003000EB020008000000000F0300083504000870
:10004000170200081702000817020008170200082C
:10005000170200081702000817020008170200081C
:10006000170200081702000817020008170200080C
:1000700017020008170200081702000817020008FC
:1000800017020008170200081702000817020008EC
:1000900017020008170200081702000817020008DC
:1000A00017020008170200081702000817020008CC
:1000B00017020008170200081702000817020008BC
:1000C00017020008170200081702000817020008AC
:1000D000170200081702000817020008170200089C
:1000E000170200081702000817020008170200088C
:1000F000170200081702000817020008170200087C
:10010000170200081702000817020008170200086B
:10011000170200081702000817020008170200085B
:10012000170200081702000817020008170200084B
:10013000170200081702000817020008170200083B
:10014000170200081702000817020008170200082B
:10015000170200081702000817020008170200081B
:10016000170200081702000817020008170200080B
:1001700017020008170200081702000817020008FB
:1001800017020008170200081702000817020008EB
:1001900017020008170200081702000817020008DB
:1001A00017020008170200081702000817020008CB
:1001B00017020008170200081702000817020008BB
:1001C00017020008170200081702000817020008AB
:1001D000170200081702000817020008170200089B
:1001E0001702000817020008DFF80CD000F04AF8E8
:1001F00000480047AD0B000808040020064880476F
:1002000006480047FEE7FEE7FEE7FEE7FEE7FEE7FB
:10021000FEE7FEE7FEE7FEE739040008E901000813
:100220002DE9F05F0546002092469B46884606462B
:10023000814640241BE0284641464746224600F0BE
:1002400042F853465A46C01A914110D311461846F7
:10025000224600F029F82D1A67EB01084F46224686
:100260000120002100F020F817EB00094E41201E6C
:10027000A4F10104DFDC484631462A464346BDE886
:10028000F09F0000064C074D06E0E06840F00103D7
:1002900094E8070098471034AC42F6D3FFF7A8FF64
:1002A000300C0008500C0008202A04DB203A00FA29
:1002B00002F1002070479140C2F1200320FA03F3BD
:1002C000194390407047202A04DB203A21FA02F0BB
:1002D0000021704721FA02F3D040C2F12002914080
:1002E00008431946704700BFFEE7704701460020EB
:1002F000034A52680A400AB1012000E0002070471A
:100300000010065000BFFEE700BFFEE770477047D1
:10031000704700000CB50020019000904148006833
:1003200040F480303F49086000BF3E48006800F458
:10033000003000900198401C0190009818B9019875
:10034000B0F5A04FF1D13748006800F4003010B18B
:100350000120009001E0002000900098012860D169
:1003600030484030006840F080502E4940310860ED
:100370002D48006840F440402B4908602948083067
:1003800000682849083108600846006840F40040C9
:1003900008600846006840F4A05008602348091F20
:1003A0000860081F006840F08070091F086000BFE7
:1003B0001C48006800F000700028F9D01A48006856
:1003C00040F480301849086000BF1748406800F4C6
:1003D00080300028F9D01448006840F400301249F9
:1003E000086000BF1048406800F400300028F9D0D1
:1003F00040F205700E4908600A480830006820F095
:1004000003000849083108600846006840F002000F
:10041000086000BF03480830006800F00C0008289E
:10042000F8D10CBD0038024000700040195A400756
:10043000003C02407047000010B51548006840F4C9
:100440007000134908601348006840F0010011492A
:10045000086000200F49083108600E4800680E4906
:1004600008400C4908600D48091D0860081F006815
:1004700020F48020091F0860002006490C31086024
:10048000FFF748FF4FF0006001498039086010BD58
:1004900088ED00E000380240FFFFF6FE1030002437
:1004A00000BF0549097801F080010029F9D0C0F3A7
:1004B0000801014A51607047001001401D48006862
:1004C00040F001001B4908601A481430006840F0F1
:1004D00010001849143108601748406A40F0700055
:1004E000154948620846006840F400200860084644
:1004F000406820F4002048600846806840F40020EE
:1005000088600846C06840F48020C8600B48806856
:1005100040F20D310843094988600846C06842F23C
:100520000C0108430549C8600846C06940F0010055
:10053000C86170473038024000000240001001409E
:1005400000BFFEE70FB4054B10B503A9044A02989B
:1005500000F018F810BC5DF814FB00004508000816
:100560000000002002E008C8121F08C1002AFAD1CA
:1005700070477047002001E001C1121F002AFBD123
:10058000704700002DE9FF4F8DB09B460F46044693
:10059000002606E025280BD05A460F999047641C88
:1005A000761C20780028F5D111B03046BDE8F08FD8
:1005B0000025A8460122984900E0054314F8013FB0
:1005C000203B02FA03F00842F7D120782E2817D1F9
:1005D00014F8010F45F004052A280ED06FF02F0201
:1005E0002078A0F1300109290AD808EB880102EB34
:1005F000410100EB0108641CF2E757F8048B641C0E
:1006000020786C280DD004DC4C2812D06A2811D137
:1006100004E074280DD07A280CD10AE045F40015C6
:1006200007E0617845F48015814202D1641C05F52C
:100630008015641C2278692A45D008DC002AB3D0D2
:10064000582A69D0632A10D0642A08D13BE0702A66
:1006500067D0732A13D0752A5CD0782A5CD01046F4
:100660005A460F999047761CD3E017F8040B8DF883
:10067000000000208DF80100E946012003E057F852
:10068000049B4FF0FF3069074FF0000501D40AE0EA
:100690006D1C45450DDA8542FADB19F80510002975
:1006A000F6D106E06D1C8542FCDB19F80510002927
:1006B000F8D12E4404E019F8010B5A460F999047DF
:1006C0006D1EF8D2A5E00A200021CDE90801C5F38E
:1006D000025002280DD001CFC117031E71F1000393
:1006E0000DDA4FF0000CD0EB0C006CEB01012D2368
:1006F00008E0FF1D27F00707F7E80201EDE72B05EB
:1007000004D52B238DF8283001233BE0EB0739D0AB
:100710002023F7E70A2000E010200021CDE908019E
:1007200007E01020002145F00405CDE908014FF055
:100730000808C5F3025002280FD001CF00214FF066
:10074000000A2B071FD5702A0DD0DDE908C38CF0F5
:10075000100C5CEA030C0CD015E0FF1D27F0070716
:10076000F7E80201EBE740228DF828204FF0010A5C
:100770000BE050EA010306D030238DF828308DF8C5
:10078000292002239A46582A04D024A20DF12009D8
:100790000B9209E026A2F9E7DDE90823FFF740FD07
:1007A0000B9B9B5C09F8013D50EA0102F4D1ADEBD3
:1007B000090020300890680701D44FF0010808991B
:1007C000884502DDA8EB010000E0002080460025FE
:1007D00006E00AA85A46405D0F9990476D1C761CAA
:1007E0005545F6DB04E030205A460F999047761CB9
:1007F000B8F10001A8F10108F5DC05E019F8010BDA
:100800005A460F999047761C0899481E089000296F
:10081000F4DC641CC5E600000928010030313233E5
:10082000343536373839616263646566000000002C
:100830003031323334353637383941424344454616
:100840000000000010B503460C46D8B2FFF728FEA2
:1008500010BD000010B57348006840F48030714945
:10086000086071A0FFF76EFE75A0FFF76BFE4FF0FA
:10087000FF307949486188610846006840F001000E
:10088000086000BF0120FFF731FD0028FAD0724850
:10089000026AC1697148FFF755FE71A0FFF752FE69
:1008A0004FF0FF306C49486188610846006840F0AD
:1008B0000300086000BF0120FFF718FD0028FAD0F0
:1008C0006548026AC1696548FFF73CFE6AA0FFF708
:1008D00039FE00206049486188610846006840F0A0
:1008E0000100086000BF0120FFF700FD0028FAD0DA
:1008F0005948026AC16964A0FFF724FE70A0FFF79F
:1009000021FE00205449486188610846006840F093
:100910000300086000BF0120FFF7E8FC0028FAD0C0
:100920004D48026AC16958A0FFF70CFE68A0FFF7A6
:1009300009FE4FF0FF30484948620846006840F41D
:100940008070086000BF4FF48070FFF7CFFC002874
:10095000F9D04148816A62A0FFF7F4FD69A0FFF772
:10096000F1FD4FF0FF303C4948620846006840F412
:10097000007008600846006840F48070086000BF9E
:100980004FF48070FFF7B2FC0028F9D03248816A3A
:1009900060A0FFF7D7FD3048806A2F48806AC2B256
:1009A000002166A0FFF7CEFD6AA0FFF7CBFD002077
:1009B000294948620846006840F48070086000BF1A
:1009C0004FF48070FFF792FC0028F9D02248816A2A
:1009D00064A0FFF7B7FD6AA0FFF7B4FD00201E4931
:1009E00048620846006840F40070086008460068E5
:1009F00040F48070086000BF4FF48070FFF776FC11
:100A00000028F9D01448816A61A0FFF79BFD1248C5
:100A1000806A1148806AC2B2002148A0FFF792FDA7
:100A200010BD000094380240656E61626C652066FE
:100A3000696E7464697620636C6F636B0D0A0000E5
:100A40007369676E206469762030786666666666CC
:100A50006666660D0A00000000100650E80B0008EC
:100A6000756E7369676E2064697620307866666695
:100A700066666666660D0A007369676E206469764D
:100A80002030300D0A0000004449564944454E4488
:100A9000203D203020616E642044495649534F5216
:100AA000203D20300D0A51554F203D2025642C5209
:100AB000454D41494E203D2025640D0A00000000AF
:100AC000756E7369676E206469762030300D0A0098
:100AD000726F6F7420696E742066660D0A000000E4
:100AE0005241444943414E44203D20307866666679
:100AF00066666666660D0A726F6F74203D20256417
:100B00000D0A0000726F6F7420666C6F617420664E
:100B1000660D0A005241444943414E44203D203075
:100B20007866666666666666660D0A726F6F742022
:100B30003D20307825780D0A00000000696E742091
:100B40003D2025642C666C6F6174203D2025640D6A
:100B50000A000000726F6F7420696E742030300DCF
:100B60000A0000005241444943414E44203D203098
:100B70000D0A726F6F74203D2025640D0A0000007D
:100B8000726F6F7420666C6F61742030300D0A00D4
:100B90005241444943414E44203D20300D0A726F7A
:100BA0006F74203D20307825780D0A00FFF786FC11
:100BB00003A0FFF7C7FCFFF74DFE00BFFEE70000F4
:100BC0000D0A66696E746469762066756E63746971
:100BD0006F6E5F6469765F7369676E5F69742074B6
:100BE0006573740D0A0000004449564944454E445B
:100BF000203D203078666666666666666620616EB1
:100C0000642044495649534F52203D20307866664F
:100C10006666666666660D0A51554F203D2025645E
:100C20002C52454D41494E203D2025640D0A0000BF
:100C3000500C0008000000200400000064050008BB
:100C4000540C00080400002004040000740500088F
:040C500000000000A0
:04000005080001E905
:00000001FF
