:020000040800F2
:10000000B8040020FD010008530200084B0200085C
:100010004F020008450200088504000800000000A7
:10002000000000000000000000000000570200086F
:10003000490200080000000055020008790300088A
:10004000170200081702000817020008170200082C
:10005000170200081702000817020008170200081C
:10006000170200081702000817020008170200080C
:1000700017020008170200081702000817020008FC
:1000800017020008170200081702000817020008EC
:1000900017020008170200081702000817020008DC
:1000A00017020008170200081702000817020008CC
:1000B00017020008170200081702000817020008BC
:1000C00017020008170200081702000817020008AC
:1000D000170200081702000817020008170200089C
:1000E000170200081702000817020008170200088C
:1000F000170200081702000817020008170200087C
:10010000170200081702000817020008170200086B
:10011000170200081702000817020008170200085B
:10012000170200081702000817020008170200084B
:10013000170200081702000817020008170200083B
:10014000170200081702000817020008170200082B
:10015000170200081702000817020008170200081B
:10016000170200081702000817020008170200080B
:1001700017020008170200081702000817020008FB
:1001800017020008170200081702000817020008EB
:1001900017020008170200081702000817020008DB
:1001A00017020008170200081702000817020008CB
:1001B00017020008170200081702000817020008BB
:1001C00017020008170200081702000817020008AB
:1001D000170200081702000817020008170200089B
:1001E0001702000817020008DFF80CD000F018F81A
:1001F0000048004735050008B8040020064880473D
:1002000006480047FEE7FEE7FEE7FEE7FEE7FEE7FB
:10021000FEE7FEE7FEE7FEE77D030008E9010008D0
:10022000064C074D06E0E06840F0010394E8070043
:1002300098471034AC42F6D3FFF7DAFFD005000838
:10024000F005000800BFFEE7704700BFFEE700BFF3
:10025000FEE77047704770470CB500200190009092
:100260004148006840F480303F49086000BF3E4884
:10027000006800F4003000900198401C0190009844
:1002800018B90198B0F5A04FF1D13748006800F4D3
:10029000003010B10120009001E000200090009893
:1002A000012860D130484030006840F080502E492D
:1002B000403108602D48006840F440402B490860F8
:1002C0002948083000682849083108600846006855
:1002D00040F4004008600846006840F4A050086000
:1002E0002348091F0860081F006840F08070091F3C
:1002F000086000BF1C48006800F000700028F9D0BA
:100300001A48006840F480301849086000BF174858
:10031000406800F480300028F9D01448006840F4A8
:1003200000301249086000BF1048406800F40030F7
:100330000028F9D040F205700E4908600A480830DC
:10034000006820F00300084908310860084600688A
:1003500040F00200086000BF03480830006800F069
:100360000C000828F8D10CBD003802400070004095
:10037000195A4007003C02407047000010B515486C
:10038000006840F47000134908601348006840F0AA
:1003900001001149086000200F49083108600E482B
:1003A00000680E4908400C4908600D48091D0860A6
:1003B000081F006820F48020091F086000200649FB
:1003C0000C310860FFF748FF4FF0006001498039A9
:1003D000086010BD88ED00E000380240FFFFF6FE27
:1003E0001030002400BF0549097801F08001002980
:1003F000F9D0C0F30801014A516070470010014074
:100400001D48006840F001001B4908601A4814307C
:10041000006840F010001849143108601748406A1D
:1004200040F07000154948620846006840F400201A
:1004300008600846406820F400204860084680684C
:1004400040F4002088600846C06840F48020C860FE
:100450000B48806840F20D3108430949886008461E
:10046000C06842F20C0108430549C8600846C069EB
:1004700040F00100C861704730380240000002407F
:100480000010014000BFFEE7014A024900F013B826
:1004900025050008B400002002E008C8121F08C1AA
:1004A000002AFAD170477047002001E001C1121FF5
:1004B000002AFBD170472DE9F04116460F4604464D
:1004C000002503E03946B047641C6D1C20780028E5
:1004D000F8D12846BDE8F08100B51048006840F426
:1004E00080300E49086000200D490860401E00F071
:1004F00037F801200A490860002000F031F8022096
:10050000074908604FF05A3000F02AF803200449E8
:1005100008604FF0A53000F023F800BD9438024089
:10052000B000002010B503460C46D8B2FFF75AFFC2
:1005300010BD0000FFF764FF03A0FFF7A5FFFFF762
:10054000CBFF00BFFEE700000D0A66696E746469A8
:10055000762072656720746573740D0A00000000D0
:1005600010B501461748001D002214E00160164B2B
:100570001B6803EB430404EBC303144C04EB830339
:1005800053F822300468A34201D000BFFEE70023E5
:100590000360001D521C0A2AE8DB0A4801600A4B6E
:1005A00002681B6803EB430404EBC303074C04EB32
:1005B00083039B6A9A4201D000BFFEE700220260DB
:1005C00010BD000000100650B00000200000002008
:1005D000F005000800000020B800000098040008A2
:1005E000A8060008B800002000040000A8040008C5
:1005F00000000000070000000000000000000000F4
:10060000FFFFFFFFFFFFFFFF0000000000000000F2
:10061000FFFFFFFF000000000000000001030000DA
:1006200000000000000000000000000000000000CA
:1006300000000000FFFFFFFF0000000000000000BE
:1006400000000000000000000101000002000000A6
:1006500000000000000000005A5A5A5A5A5A5A5ACA
:10066000FFFFFFFF000000005A5A5A5A0000000026
:100670000202000000000000050000000000000071
:1006800000000000A5A5A5A5A5A5A5A5FFFFFFFF46
:1006900000000000A5A5A5A50000000001010000C4
:0806A000000000000000000052
:04000005080001E905
:00000001FF
